:020000041000EA
:10000000002008205D0100101301001015010010F0
:100010001101001011010010110100101101001058
:100020001101001011010010110100101701001042
:100030001101001011010010190100101B01001026
:100040001D0100101D0100101D0100101D010010F8
:100050001D0100101D0100101D0100101D010010E8
:100060001D0100101D0100101D0100101D010010D8
:100070001D0100101D0100101D0100101D010010C8
:100080001D0100101D0100101D0100101D010010B8
:100090001D0100101D0100101D0100101D010010A8
:1000A0001D0100101D0100101D0100101D01001098
:1000B0001D0100101D0100101D0100101D01001088
:1000C0001D0100101D0100101D0100101D01001078
:1000D0001D0100101D0100101D0100101D01001068
:1000E0001D0100101D0100101D0100101D01001058
:1000F0001D0100101D0100101D0100101D01001048
:100100001D0100101D0100101D0100101D01001037
:1001100000BE00BE00BE00BE00BE00BEEFF3058004
:10012000103800BEF2EB88718C8C0010AC8C001083
:10013000A801001090A31AE7D3DEFFFF42012110AF
:10014000FF0100008CA60000793512AB4FF00000D3
:100150002049086006C881F3088810474FF05040D6
:10016000006810B14FF00000F2E70FA40ECC002998
:1001700002D000F015F8F9E71749184A002000E00E
:1001800001C19142FCD1002080F30A8814498847BC
:10019000144988471449884700BEFDE701C901C2D8
:1001A0009A42FBD3704700BFAC8C001010010020B6
:1001B000281C0020C4A70010000008200000082010
:1001C000C4A7001000100820001008200000000044
:1001D0007047000008ED00E0281C0020082A0020DD
:1001E000C9470010F9030010C1470010F8B500BF5F
:1001F000064B0749C91A891048BF0131491003D07D
:10020000044B0BB101481847704700BF281C002061
:10021000281C00200000000008B5054B1BB1054953
:100220000548AFF30080BDE80840FFF7E1BF00BF1D
:100230000000000098290020F887001000B583B066
:1002400007F0BCF802229FED128A124B124E1A6080
:10025000002007F0F9FD0C46054600F081F92A461A
:1002600023460090304600F019F9304600F028F996
:10027000D6ED097AB6EE007A67EE887A67EE877A6D
:10028000FCEEE77A17EE900A01F056F8E0E700BFBF
:1002900000007A4400200A40B01D00202DE9F04FF4
:1002A00099B004F0F7FB00234949022209688868E5
:1002B000194607F0DBFB04F087FF0028FBD0454818
:1002C00004F072FC00244FF0000B434E434F4448AF
:1002D00004F0E2FB831C0F2B22D801A252F823F07A
:1002E000CF02001021030010210300102103001091
:1002F00021030010550300102103001021030010FA
:10030000210300102103001021030010210300101D
:1003100033030010210300102103001033030010E9
:1003200004F160031E2C6B44D1DC03F8500C013443
:10033000CDE700236C442374049BB34211D0BB422D
:100340003FD09DF810301BB1264804A904F0ACFC46
:100350000024BCE7244B2548C3F828B004F024FC53
:10036000B5E7EFF3108C72B61F4D0CAC0FCD0FC478
:100370000FCD0FC495E80F0084E80F000D9DDDF848
:1003800038A0DDF85080DDF858908CF310882846AE
:1003900008F0E2F9044648460D4608F0DDF9024649
:1003A0000B464046CDE9022308F0D6F9804689463F
:1003B00022462B465146CDE900890D4804F074FCD5
:1003C000C6E70C4804F0F0FB19B0BDE8F08F00BFA1
:1003D000D41A0020F887001052455100454E4400C1
:1003E000A086010080880010B01D00203088001019
:1003F000508800106C88001008B5064A064B074963
:10040000074800F011F8074807F03CF8FFF746FFEF
:10041000002008BD000020413333333F00000C4270
:10042000B01D00203D0200102DE9F04704460F46A4
:10043000102004210026924699464FF0010800F052
:100440000DF94FF47A721023134D266012202E609E
:10045000AE60EE602A616B60C5F8008000F01CF9A8
:10046000122348EC4430132000F016F9132348EC13
:1004700044303046276267602761C4F824A007F043
:10048000E3FC0023C4E90201C4E90601C4F82C908E
:10049000A362BDE8F08700BF00800A4030B490ED51
:1004A000027B14461D46029A4368C0E9024530BCEF
:1004B00080ED067B42600361704700BF00000000D2
:1004C00010B5D0ED017A2DED028B90ED088A38EE53
:1004D000678A044618EE100A08F03EF91EA3D3E915
:1004E0000023B5EEC08AF1EE10FA24DD02F0E8F840
:1004F00068B10023144AA262122243EC4020132266
:1005000083F0010343EC40204FF4D2710AE0002154
:1005100012224FF00003A16243EC4020132243EC6F
:1005200040200021BDEC028B084B094ADB684B40A0
:100530009BB2D36010BD02F087F80028E7D00123FA
:10054000044AD8E7AFF30080CDCC4CBE00800A400F
:1005500000900A40CDCC4C3E9A9999999999B93F0F
:100560000420374AF8B51368364C374903F4704312
:10057000236008601368DB05FCD553689FED336A80
:100580009BB207EE903AF8EEE77A9FED317A67EE8C
:10059000867A37EE677ADFED2F6A87EE876A66EE36
:1005A000267A17EE900A02F053FC08F0D5F80022E4
:1005B000294B04460D4601F0A1FD19A3D3E9002300
:1005C00006460F462046294601F050FF16A3D3E900
:1005D000002301F023FF16A3D3E9002304460D46B0
:1005E0003046394601F042FF02460B462046294676
:1005F00001F014FF01F0AEFFB7EE007A07EE900AAB
:10060000C7EE277A17EE900A08F0A6F80AA3D3E9F6
:10061000002301F017FF01F09DFFF8BDAFF300804C
:10062000203A2D0D3654303F001709128024513FD7
:100630005FDFE6ADE4A5513E666666666612714010
:1006400000000A4000100A4000200A403333533AA9
:100650003333534000401C460000084010B44FF4B0
:1006600080740C4B53F8202003EB8003C00082F011
:10067000400200F1804003F5805C02F0C00200F50A
:10068000203003F54053CCF8002041601C605DF839
:10069000044B70470480034030B44FF0000343EC38
:1006A000440043EC400005254FF480740B4BC2001E
:1006B00053F8201003EB800081F0400102F18043E9
:1006C00003F5203301F0C00200F5805100F54050E1
:1006D0000A605D60046030BC704700BF0480034066
:1006E0000FB400B583B0049C074804F05DFA3CB138
:1006F00005A92046019103F0EFFF044804F054FAE5
:10070000012004F001F800BF98880010A8880010AC
:1007100070B58646EFF3108572B6124CD4E8CF6FF1
:100720000120002EFAD1C4E8460F002EF6D1BFF307
:100730005F8F4FF0010CC80801F007030CFA03F3B8
:100740001EF800C01CEA030608D14CEA030C0EF8A0
:1007500000C0C4E88F6F85F3108870BD1046FFF7A6
:10076000BFFF00BF0F210020F8B5EFF3108772B66E
:100770001C4ED6E8CF5F0124002DFAD1C6E8454FC4
:10078000002DF6D1BFF35F8F9A421BD8012502E0FE
:100790000132934222D3D40810F804E002F0070C8F
:1007A00005FA0CFC1EEA0C0FF2D14EEA0C0E00F812
:1007B00004E010460023C6E88F3F87F31088984274
:1007C00007DBF8BD0023C6E88F3F87F310884FF0A2
:1007D000FF300029F5D00698FFF782FF4FF0FF3079
:1007E000E8E700BF0F210020044A1078431CDBB269
:1007F000182B28BF10231370704700BF1816002055
:1008000010B5054C82B001461F23182200940348FE
:10081000FFF7AAFF02B010BDAC8800102025002011
:100820004FF0E022936843F000539360704700BF9D
:100830000021044B03F12002C3E88F1F01339342D0
:10084000FAD17047042100204FF0E0234FF08032AE
:10085000C3F80024C3F80424C3F80824C3F80C2404
:10086000C3F81024C3F81424C3F81824C3F81C24B4
:10087000C3F82024C3F82424C3F82824C3F82C2464
:10088000C3F83024704700BF012300F01F029340DB
:10089000400941B1800000F1604000F56140C0F8BE
:1008A000803103607047024A203042F820307047A0
:1008B00000E100E00123064A410952F8212000F03E
:1008C0001F0003FA00F01040003818BF01207047E5
:1008D00000E100E001224309034900F01F008240CB
:1008E000403341F82320704700E100E0054A103012
:1008F0009268054B52F82000C01A2F288CBF0020A8
:100900000120704700ED00E01C160020F8B50D46F0
:10091000EFF3108772B6124ED6E8CF2F0123002ACC
:10092000FAD1C6E8423F002AF6D1BFF35F8F0D4BE4
:1009300000F110049B680C4A53F82430934203D012
:10094000994201D000F0A6FF064B9B6843F8245063
:10095000BFF35F8F0023C6E88F3F87F31088F8BD91
:100960000D21002000ED00E01D0100102DE9F04FE9
:1009700081468B46164683B0EFF3108372B6DFF8DC
:10098000D0A10093DAE8CF1F01230029FAD1CAE8E9
:10099000413F0029F6D1BFF35F8F664B93F90040CA
:1009A000002CC0F2A080644D04EB440705EB8708DF
:1009B00098F8061009F110091970604BBF009B6888
:1009C00053F829006300411B2F292FD95C49884225
:1009D00040F0A4801C445B4B02372F44043BDB1BDC
:1009E000C3F34A036FEAC3434FF421416FEAD34391
:1009F00025F8241005EB840463804BF60153A38093
:100A0000FF2348F00100E671C4F808B0A3714B4B16
:100A10009B6843F82900BFF35F8F0023CAE88F3F2C
:100A2000009B83F3108803B0BDE8F08F20F0010E27
:100A30009EF80710B1422ED84FF42143EB53414B9F
:100A4000B91C2944043B04375B1A2F44AEF104015E
:100A5000C91BC1F34A043C49C3F34A030B43214376
:100A6000A8F804103949A8F802304AF6AA207346BB
:100A70005B1B5B415843000D88F8076088F806004F
:100A8000C8F808B048F00100CEF80010BFE7D179EF
:100A9000B1422ED996469EF906C00CEB4C02BCF131
:100AA000000F05EB8202F2DA4BF601510EF104025F
:100AB000A8F10407BF1AC7F34A076FEAC7476FEAEE
:100AC000D7478EF8064003EB0408204C05EB88035B
:100AD000AEF8047045F82840998083F806C0DE71AE
:100AE000C3F808B093E700F0D5FE124B93F900402D
:100AF00059E7724632F8041F490514D449150231EA
:100B000002EB410101916FF00701C91B019F491BD5
:100B10003944C1F34A0141F46041C9E7019300F04F
:100B2000B9FE019B56E701F5FF1101F5FF511F3199
:100B3000E4E700BF002A00201C16002000ED00E0C2
:100B40001D0100104C16002000E0FFFF0148804707
:100B50000D210020F0B5EFF30585EDB2EFF3108C19
:100B600072B62649D1E8CF2F0123002AFAD1C1E875
:100B7000423F002AF6D1BFF35F8F214E40F0010EB5
:100B8000B4684AF6AA2354F825701E4A0446A41AEB
:100B9000644163431B0D77455BB21BD092F906405D
:100BA0009C421CD092F912409C4223D092F91E40E4
:100BB0009C4221D092F92A409C4208BF03240FD0C6
:100BC000114A0024157813708571C1E88F4F8CF39A
:100BD0001088F0BDB2680D4C42F82540F0E70024C3
:100BE00004EB440402EB8402FF2494714BF601549D
:100BF0009480E5E70124F3E70224F1E70D210020CA
:100C000000ED00E01C160020002A00201D0100104D
:100C100010B5074C82B00146052300220094054818
:100C2000FFF7A2FD0028A8BFC0F1330002B010BD3D
:100C3000C8880010042A0020014B0B440360704751
:100C40000421002070B5104C104DAC420ED2FF268E
:100C5000236863B1FFF7C8FD01462046FFF7ECFFAC
:100C6000A680BFF35F8F0834AC42F1D370BDFFF7AD
:100C7000BBFD01462046FFF7DFFF2671BFF35F8F04
:100C80000834AC42E4D370BD181C0020281C00209E
:100C900010B50446FFF7A8FD01462046FFF7CCFF3C
:100CA000FF232371BFF35F8F10BD00BF10B5044653
:100CB0000120FFF7A5FD034B03442360BFF35F8FC3
:100CC00010BD00BF04210020024B0B440360BFF3A2
:100CD0005F8F7047042100200D4B1A68EFF31081DD
:100CE00072B6D2E8CFCF0120BCF1000FF9D1C2E833
:100CF0004C0FBCF1000FF4D1BFF35F8F00221B68D3
:100D0000C3E88F2F81F3108840BF00200021704777
:100D1000E0290020000000002DE9F04F2DED028BAE
:100D200085B0EFF30583DBB2103B9A0818BF0122B0
:100D30004FF0010103F0030B18BFAF4DAF4B08BFDD
:100D4000AF4D0BEB820253F8226001FA0BF205F56E
:100D500041539FEDA78B01925A602FE0B3881C048A
:100D600040F19380B379002B40F0DD80B6F9082084
:100D7000002AC0F21E81736902EB420203EBC20338
:100D8000D3E90247B7F1FF3F08BFB4F1FF3F0ED0F0
:100D900005EB8B01AB6A0A69D21AE31A934205D3B9
:100DA00001232A6A03FA0BF3134200D10C6128468F
:100DB00000F0ACFBA042B941C0F2FB80B6F90830AC
:100DC000019A002B0093EA63C8DBD6F8148003EB8A
:100DD0004309284608EBC907D7E9024A00F096FB09
:100DE000A04271EB0A01B9DBBAF1000FC0F2C38077
:100DF000D7E90431834A934200F0ED807A88B6F94E
:100E0000080092B242EA0040984702460B4652EA76
:100E1000030100F0B080002B80F2D180B4EB020E11
:100E20006AEB030A38F93930C7E902EA002B95DB8F
:100E3000716903EB430201EBC202D2E90270BE45C5
:100E40007AEB000C4FEA430288DBB4462CF8083FEB
:100E500006E003EB430001EBC0005A00D0E902704A
:100E6000BE451A447AEB000001EBC20404DB31F901
:100E70003230A446002BECDA28F83930009BACF86D
:100E80000030B3881C043FF56DAF3369EFF3108277
:100E900072B6D3E8CF0F01210028FAD1C3E8401F72
:100EA0000028F6D1BFF35F8F4FF6FF74B0880023A0
:100EB000316900B2B480C1E88F3F82F31088984254
:100EC000FFF650AF0746A946746906F1080807EB1C
:100ED000470E04EBCE03D3E90250B6F90830C446FE
:100EE000002B13DBB246009704E034F93630944609
:100EF000002B09DB03EB430604EBC602D2E90271C7
:100F0000BD4270EB0101F0DA5646009FACF800706C
:100F100034F93E7024F83E30002FD8DAB3794D46CC
:100F2000002B3FF423AF0023B371B6F9083006F16C
:100F30000808581C3DD01A46776903E08046591CC2
:100F40003FF416AF03EB430107EBC100B0F802C05A
:100F50001C461CF4004F9E4637F93130EED09442C7
:100F600080ED028B05D0A8F80030328927F83120B7
:100F700034817246E3E738F8393033813369EFF36F
:100F8000108272B6D3E8CF0F01210028FAD1C3E84E
:100F9000401F0028F6D1BFF35F8F7388316928F8AE
:100FA0003930009B73800023C1E88F3F82F31088A3
:100FB000D4E640BF05B0BDEC028BBDE8F08F2846FB
:100FC000CDE9022300F0A2FA029A039B10EB020E75
:100FD00043EB010A26E708460B690291984700286F
:100FE000C9D00299D1E9002311E700BFAFF3008017
:100FF000FFFFFFFFFFFFFFFF00800B40B82900202D
:1010000000000B40190D00102DE9F84F364C2569F2
:101010002DB1BDE8F84F0A213448FFF70DBEDFF8C7
:10102000E4800321404600F05FFA0326C4F80C80F8
:10103000FFF7DAFB4FF0504C2D4B26700344236131
:10104000DCF800300F216370636961801D834FF00D
:101050000405A3F878504FF00505A3F890504FF021
:101060000605A3F8A8504FF007050E214FF6FF72B2
:1010700008274FF00A0EA3F8C0504FF001094FF0B7
:101080000C0C4FF0020B4FF0090A0D204FF00B052E
:10109000A3F868111749A280A3F808E1A160A3F89A
:1010A00048B0A3F8F0A0A3F82051A3F838C1A3F8E2
:1010B0005001A3F83090A3F86060A3F8D8701A80AC
:1010C0000D4B3046C8F820700C49DC60FFF71EFC61
:1010D00049463046FFF7D8FB094B0A211F640348F5
:1010E000BDE8F84FFFF7A8BD64160020E0290020F6
:1010F00004210020FFFF1000B8290020190D001066
:1011000000200B4000000B40004870476416002090
:10111000F8B59DF82050044617461E4635B900F034
:10112000FDF9874266EB010100295CDB2169EFF3E1
:10113000108372B6D1E8CF0F01220028FAD1C1E89E
:10114000402F0028F6D1BFF35F8FB4F90220656904
:1011500002EB4201002A4FEAC10C206905EBC101F4
:1011600039DB35F80CE0A4F802E04FF0000EC0E8DF
:101170008FEF83F310884888069B0130C0F30E0080
:10118000012838BF01200B61079B48804B61C1E9F2
:10119000027640EA02402369EFF3108172B6D3E889
:1011A000CF7F0126002FFAD1C3E8476F002FF6D179
:1011B000BFF35F8FA38825F80C30A2802369C3E8B2
:1011C0008FEF81F310880122E368217803F5015342
:1011D0008A405A60F8BD0022C0E88F2F83F3108840
:1011E0004FF0FF30F8BD2846F8BD00BF0146F0B50E
:1011F0000069EFF3108772B6D0E8CF5F0124002DAD
:10120000FAD1C0E8454F002DF6D1BFF35F8FB1F999
:1012100002E04C690EEB4E0CBEF1000F4FEACC051C
:10122000086904EBCC0C3CDB665B4E800026C0E812
:101230008F6F87F31088BCF80200CCE902230130DD
:10124000C0F30E00012838BF0120059BACF8020056
:10125000CCF81030069B40EA0E40CCF814300B69F5
:10126000EFF3108272B6D3E8CFCF0127BCF1000FA5
:10127000F9D1C3E84C7FBCF1000FF4D1BFF35F8F0D
:101280008B886353A1F804E00B69C3E88F6F82F386
:1012900010880122CB68097803F501538A405A600F
:1012A000F0BD0023C0E88F3F87F310884FF0FF3078
:1012B000F0BD00BF03464089B0EB214F37DD5869D0
:1012C0000A1402EB420210B500EBC2001C69EFF3F6
:1012D000108C72B6D4E8CFEF0122BEF1000FF9D125
:1012E000C4E84E2FBEF1000FF4D1BFF35F8F4288E8
:1012F00089B292B28A4207D000221B69C3E88F2FBD
:101300008CF31088002010BD42F40042428001217D
:10131000002218699971C0E88F2F8CF310881C780F
:10132000DA68084602F50153A140596010BD00205B
:10133000704700BF407870472DE9F04182B0064603
:1013400000F0ECF84FF47A7304464FF0FF306FF082
:101350000042E6FB0341A04272EB01033ABF0446A0
:1013600015460D46A61F45F1FF37B44275EB07033E
:101370003CBF0026374600F0D1F8301A67EB010178
:10138000012871F1000106DA2046294602B0BDE8C5
:10139000F04100F0FBB800F0C1F8864267EB0101B4
:1013A00000290ADB0021174B3246009316483B46C2
:1013B0000191FFF71BFF0130E6D04FF0000C134AFC
:1013C0001349536A9F4204D8906AB042DCD29F42CC
:1013D000DAD10B68EFF3108072B6D3E8CF8F5FF0ED
:1013E000010EB8F1000FF8D1C3E848EFB8F1000FD3
:1013F000F3D1BFF35F8F0B68C3E88FCF80F3108802
:1014000020BFDEE7D90C00106416002000000B405E
:10141000E02900202DE9F04306460D4683B0EFF3A6
:101420000584E4B23CB12D4B5A6AAA421CD200207A
:1014300003B0BDE8F0832A4FD7F80C9097F80080EE
:10144000484600F063F808F1040859F828301B1AE0
:10145000301A65EB0101984271F1000110DB20BFE9
:101460001E4B5A6AAA42E2D314BF012400249B6A8D
:10147000B34234BF204644F0010003B0BDE8F0831E
:1014800000F04CF8864265EB0101002914DB154B96
:101490003846CDE9003432462B46FFF7A7FE011E41
:1014A0000ADD0E4B5A6AAA4216D39B6AB34211D385
:1014B0000B48FFF7FFFEB6E7084B5C6AAC42B6D3B9
:1014C000641B18BF01249B6AB34234BF204644F01A
:1014D0000100ADE7AA42EBD120BFE9E700000B40D5
:1014E00064160020D90C001010B4054B054C064AB8
:1014F000A04214BF1846581C5DF8044BFFF708B90A
:101500002425002000800B40E48800100346416A37
:101510000A46986A596A8A42FAD17047034B596A57
:101520000A46986A596A9142FAD1704700000B4006
:1015300030B4154A536A9C46946A536A6345FAD19B
:10154000021959414FF0000528BF01250E4B5B6A77
:10155000B5B15A1C08BF1A4608D04FF0FF310A46F1
:101560000948436A8B42FCD38B4207D1064902E00B
:10157000486A984202D1886A9042F9D330BC7047D9
:101580009942EDD8F0E700BF00000B40074A536ACC
:101590009942FCD8994207D1044B02E05A6A914221
:1015A00002D19A6A9042F9D8704700BF00000B4000
:1015B00000EB400C4FEA8C0C0CF1804C0CF5803C9D
:1015C000F0B51646DCF80420051FB2F5803F38BFA1
:1015D0004FF48032EDB238BFCCF80420012D2AD967
:1015E0004FF40067254C0CF54052176054F820204A
:1015F000B2B9DCF80020012D82EA461202F0E002C6
:101600000CF5805632602AD94FF4006144F820303E
:101610004FF480330CF500521160CCF80430F0BD6B
:101620006769B7FBF2FE0EF1010E0EEB4E0EBEF136
:10163000030EFCD2DDE70129D2D103240CF5405280
:101640001460DCF80820D207FBD5DCF800200B4C36
:1016500082EA461202F0E0020CF580563260012266
:10166000DCF800504D4005F00305356002FA01F149
:10167000DCF808200A42FBD0C6E700BF282500207E
:10168000014B53F8200070472825002070B4039DBB
:1016900004682D0345EA03451B4B002CB3FBF1F313
:1016A000B2FBF3F61FDB194A194B904214BF4FF4FB
:1016B00080424FF40042174C1A6003F580531A60C1
:1016C000A36832EA0303FBD1212200F5405304331F
:1016D000016086601A600268002AFCDA0822C56090
:1016E0001A6070BC7047036803F03F038B42DAD185
:1016F0008368C3F30B03B342D5D1C36803F4EE236D
:10170000AB42D0D1EDE700BF001BB7000080054021
:10171000002002400000024030B44FF080441C4BD7
:101720001C60E0B11B4CA3F54053DC611A4C40F047
:10173000010044401C62596298624FF080454FF0AE
:10174000E061134B1548164C1D60846019604AB95E
:1017500030BC4FF00042A3F580531A607047114B24
:10176000D861EAE74FF47A7303FB02F2B2F1807FAB
:101770002ABF6FF07F4313461A464FF080410A4C50
:1017800008482360094B426030BC1960704700BFB5
:1017900000B00D40D3C007B02D3FF84F00A001406E
:1017A000F3FFFF0100800D409029002000A00D40B4
:1017B000012300EB4000800000F1804000F5841020
:1017C00041600360704700BF002370B5DB8A0446A8
:1017D0000D46002242E800F2520254BF10210421BB
:1017E00044F25220984786462B462246F446BDE8EE
:1017F00070400A214FF48170604700BF0023DB8AEC
:10180000002242E800F2520201D4102118470421BC
:10181000184700BF08B503460846191E02DB1AB177
:1018200040F03000FFF7D0FF40F02000FAE700BFA3
:10183000034AD2F82838002BFBD0BFF35F8F7047E4
:1018400000000E400021044B044ABFF35F8F43F8B1
:10185000041B9342F9D170470C080E402C080E402F
:1018600010B44FF48D704FF42A64064A064B0749B2
:101870001460D06019605368002BFCDA5DF8044BEB
:10188000704700BF0080044000A0044000B0FA0090
:10189000704700BF08B50148FEF722FF0889001015
:1018A00038B5054C054DAC4204D254F8043B98477A
:1018B000AC42FAD338BD00BFB0870010F0870010EB
:1018C00038B5054C054DAC4204D254F8043B98475A
:1018D000AC42FAD338BD00BFDC870010F08700109F
:1018E00010B40748074C084B084A094904601A60BD
:1018F0008B6832EA0303FBD15DF8044B704700BFED
:10190000002002407F3BEFEF00300240F6FFF30380
:1019100000000240044BDB6CB3F5004F03D14FF4E1
:101920008022024BDA6470470000115000201150F1
:101930004FF0E022044BD2F8881D0B43C2F8883DDB
:1019400010EE3004704700BF030330006FF06041B9
:10195000044B054A19609368DB4333F06043FAD1C6
:10196000704700BF003002400000024010B545F251
:101970005320FFF743FFBDE81040034604201847FB
:1019800010B545F25320FFF739FFBDE8104003467C
:1019900001201847FEF74CBF10B5054B054C4FF41E
:1019A00088721846A16806F0AFFAA06010BD00BFAB
:1019B0000000002000ED00E0002370B52B4C82B049
:1019C000C4F88430FFF74CFF0122294BDA63636CC3
:1019D000012BFCD10321264A244B11639C6B012C63
:1019E000FCD10226052521460523224A22480096DD
:1019F000FFF74CFE21462B46204A21480095FFF771
:101A000045FE0022042031461E4BFFF7D1FD214642
:101A1000284600221C4BFFF7CBFD00220820114670
:101A20001A4BFFF7C5FD002209201146174BFFF79F
:101A3000BFFD002206201146134BFFF7B9FD00221F
:101A4000114B07201146FFF7B3FD0420FFF718FEE6
:101A500000240F4BA3FB0035AD0CE0B22946013446
:101A6000FFF7A6FE062CF8D102B070BD00000140C1
:101A700000300140002F685900000540008C864767
:101A800000800540001BB70080D1F008006CDC022C
:101A900083DE1B43000000002DE9F04FC1F30A591B
:101AA00016461F4687B0A9F2FF38B9F1000F51D092
:101AB00040F2FF74A1454DD00024C9F57F72033276
:101AC000201801EB025101F006F985A3D3E90023A8
:101AD00000F0F2FC0022844B04460D4600F0F0FDBD
:101AE00048B1204629460022804B00F0ABFC04465A
:101AF0000D46A9F2FE38B8F1000F20D03046394625
:101B000000227B4B00F0C8FD40B1B8F1000F4FF050
:101B1000000010DB774907B0BDE8F08F304639464A
:101B20000022754B00F0A4FD814668B3B8F1000FA8
:101B30004FF00000EEDB002107B0BDE8F08F324629
:101B40003B462046294600F091FC07B0BDE8F04F27
:101B500000F076BA01F0BFF861A3D3E9002300F0EA
:101B6000ABFC0022604B04460D4600F0A9FD0028A6
:101B7000C4D02046294600225C4B00F063FCA9F249
:101B8000FE3804460D46B9E73046394600F01AFAE9
:101B90000B460246394630461F46164600F052FCB8
:101BA00082468B461A22CDE900AB00F0E9F900F03D
:101BB00009FAC1F30A5340F2FF7C82468B464BB1CF
:101BC000634507D01A2BD5BFCA46824601F0004BA9
:101BD000A1F1D07B3946304600F0EEFC814640460C
:101BE00000F0C6FC02460B46CDE9042352465B4694
:101BF00000F03CFC06460F4600F0E4F902460B46B6
:101C00003046394616461F46CDE9026700F01AFCF9
:101C100006460F46DDE9000152465B4600F012FC25
:101C2000DDE9042300F022FC32463B4600F0F6FBDF
:101C3000CDE90401484600F09BFC22462B4600F00B
:101C400015FC06460F4600F0BDF982468B4630462D
:101C5000394652465B4600F0F5FBDDE9042300F00F
:101C6000DDFB06460F46DDE9000122462B4600F06B
:101C7000FDFB32463B4600F0D1FB00F0E1F9C1F339
:101C80000A5440F2FF730D460646002C3FF443AF62
:101C90009C423FF440AFDDE9020100F08DFC08FBFF
:101CA00009F959468144504600F086FC00EB0903CF
:101CB0001C44002C0BDD40F2FE7294420BDD05F05B
:101CC000004545F0FF41002041F4E00123E70020FA
:101CD00005F000411FE7002205EB035190191AE7B8
:101CE000EF39FAFE422EE63F0000E03F0000F03FF1
:101CF0000000B0400000F07F0000B0C0012A2DE9D4
:101D0000F04706460F4600F0818002EBD2756D1059
:101D1000012D144666D09046002AB8BF02F1030890
:101D20004FEAA808B8F1010F79D09146002AB8BF50
:101D300002F107094FEAE909B9F1010F6CD09246A7
:101D4000002AB8BF02F10F0A4FEA2A1ABAF1010FAE
:101D500068D0A2F120031F2B67D90022FFF7CEFF26
:101D600002460B4600F082FB02460B46104619461F
:101D700000F07CFB1AF0010F02460B4605D03246FC
:101D80003B4600F073FB02460B461046194600F036
:101D90006DFB19F0010F02460B4605D032463B465B
:101DA00000F064FB02460B461046194600F05EFB4D
:101DB00018F0010F02460B4605D032463B4600F0B4
:101DC00055FB02460B461046194600F04FFBED0747
:101DD00002460B4608D532463B4600F047FB02461A
:101DE0000B4601E002460B461046194600F03EFB4A
:101DF000E40702460B4605D532463B4600F036FB6B
:101E000002460B4610461946BDE8F08702460B46CF
:101E100010461946BDE8F08702460B46C4E7024665
:101E20000B46D0E702460B46AFE702460B469DE75E
:101E30002DE9F04F002992469B4604460D4681B09D
:101E400080F29180C3F30A53A3F2FF33002B28DB07
:101E5000D3F1340325D44FF0FF32A3F1200802FA66
:101E600008F902FA03F1C3F1200E41EA090122FA4E
:101E70000EF941EA09019A402AEA02022BEA01011D
:101E80000A430ED1342B3BD02AFA03FC0BFA0EFE88
:101E90004CEA0E0C2BFA08F04CEA000C1CF0010F77
:101EA0002ED105F100431D46A0469946504659469D
:101EB00000F082FB2B0D064602462ED040F2FF704A
:101EC00083422AD0C5F31301214326D1294AA3F224
:101ED000FF33B242B8BF32468242A8BF024602FB7D
:101EE00003F101F2FF33002B3ADD40F2FE72934220
:101EF0003CDC0022204800EB01531946104609E063
:101F00005B465246204605F10041FFF791FF01F183
:101F10000043194601B0BDE8F08FAEB106F12003D1
:101F2000402B14D8002E08DA42464B4600201249B6
:101F300000F0C2FA8046894672424046494601B0E6
:101F4000BDE8F04FFFF7DABE00200B49E2E752464A
:101F50005B464046494601B0BDE8F04FFFF79CBDE7
:101F600000200021D6E7804689469FE700200349EC
:101F7000D0E700BF00F8FFFF0000F03F0000F07F57
:101F8000C1F30A53C3B110B540F2FF7E73450ED0C2
:101F90001344002B8C460BDD40F2FE718B420CDDAE
:101FA00000200CF0004C4CF0FF4141F4E00110BD6A
:101FB000002001F0004110BD704700230CEB0251DE
:101FC000181810BDC1F30A53A3F2FF335A1C8C46F4
:101FD0002ADB2DD0342B26DA012270B502210546EA
:101FE000C3F13304C3F1130E133B22FA03F302FAD5
:101FF0000EFE4EEA030EA4F1200002FA04F3C4F12F
:1020000020065B1921FA06F601FA00F001FA04F144
:102010004CEB0E0C30434A4260EB400E0EEA0C01D2
:1020200002EA030070BD7047002001F000417047D4
:1020300001F0004C4CF07F51002041F440117047FA
:10204000F8B540F6FF73B3EB115F40D00022284B88
:1020500004460D4600F00CFBC8BB00222046294672
:10206000244B00F019FB064610B100202249F8BDB0
:1020700020462946FFF7A6FF00F09EFA074600F02B
:1020800077FA02460B462046294600F0DBF916A3F4
:10209000D3E9002300F0EAF900F09FFCC1F30A53F2
:1020A00040F2FF7405460A46002BE0D0A342DED082
:1020B0003B44002B0EDD40F2FE718B420EDD02F040
:1020C000004242F0FF41304641F4E001F8BD0020FB
:1020D0000021F8BD304601F00041F8BD701902EB57
:1020E0000751F8BDAFF30080EF39FAFE422EE63F0C
:1020F0000000B0C00000B0400000F07F2DE9F04FBC
:1021000016461F4683B00022AF4B04460D4600F032
:1021100089FA002840F081803B0DC7F30A59B34685
:10212000B84640F2FF7A0193B9F1000F41D0204642
:1021300029460022A54B00F075FA00283ED0D14573
:1021400037D03B0D534500F0938040F6FF734FEAC4
:1021500018529A4200F09180A9F2FF39B9F1000FAC
:10216000C0F28680994AC9F13409B9F1000F17DD30
:102170004FF0FF33A9F1200C03FA0CFC03FA09F12C
:10218000C9F1200023FA00F041EA0C01014303FAEF
:1021900009F32BEA030328EA01010B4340F0F18025
:1021A00032463B462046294603B0BDE8F04FFFF7D4
:1021B0003FBE0020844903B0BDE8F08FC5F30A5349
:1021C0002A46290D73BB002FA9F2FF3334DB002B05
:1021D00053DBD3F1340350D44FF0FF32A3F120008E
:1021E00002FA00F702FA03F1C3F12006394322FA9A
:1021F00006F739439A402BEA020228EA01010A4312
:102200003BD1342B09D02BFA03F308FA06F628FA4F
:1022100000F033430343D8072FD52046294603B0A7
:10222000BDE8F08F514540D1002F4FF0000020DA7B
:10223000002103B0BDE8F08F40F2FE31894517DD83
:10224000D3F1340314D44FF0FF31A3F1200401FA89
:1022500004F601FA03F0C3F12005304321FA05F634
:10226000304399402BEA010127EA0000014307D0DF
:102270000020574903B0BDE8F08F00200021D8E7C7
:10228000342B4FF0000009D02BFA03F307FA05F5C1
:102290002B4327FA04F42343D907EAD502F000427E
:1022A00042F0FF4141F4E00185E740F6FF708142D2
:1022B0005BD1002FA9F2FF3329DB002BD8DBD3F150
:1022C0003403D5D44FF0FF32A3F1200002FA00F519
:1022D00002FA03F1C3F12004294322FA04F5294349
:1022E0009A4026EA020227EA01010A43C0D1342BB0
:1022F00053D026FA03F307FA04F427FA00F0234335
:102300000343DA074FF00000B3D5324953E740F2F8
:10231000FE329145B1DDD3F13403AED44FF0FF323C
:10232000A3F1200002FA00F502FA03F1C3F1200440
:10233000294322FA04F529439A4026EA020227EAB1
:1023400001010A4399D1342B2AD026FA03F307FA64
:1023500004F427FA00F023430343DB074FF00000A7
:102360007FF566AF4FF0004125E7390D51451BD091
:10237000390D814220D0A9F2FF39B9F1000FBFF623
:10238000F2AE002AFFF674AF32463B46204629469D
:1023900003B0BDE8F04FFFF77FBB00200D490AE70F
:1023A00000204FF0004106E740F2FE3293424FF02A
:1023B00000007FF73DAF5CE740F2FE3293424FF002
:1023C00000007FF756AF33E70000F03F0000F0BF9A
:1023D0000000F07F0000F0FF86B003B451FC080459
:1023E000CDE9020151FC0904CDE9040151EC0A04D4
:1023F000CDE9060103BCF047BDE800504EEC00C437
:10240000BDE800504EEC01C4BDE800504EEC02C4E3
:1024100000BD000000B5FFF7DFFF02E010FE30F462
:10242000F8D441EC100443EC112400EE010410EE4A
:10243000010480EE200451EC1004704700B5FFF752
:10244000CBFF02E010FE30F4F8D441EC100443EC72
:10245000112400EE010410EE210480EE200451EC62
:102460003004704700B5FFF7B7FF02E010FE30F40C
:10247000F8D410B541EC100443EC112451EC0404E1
:1024800053EC0524A0FB024C5FF0000EE0FB03CEF2
:10249000E1FB02CE4CEC20440024E1FB03E444ECDD
:1024A00030E480EE200451EC5004BDE81040704749
:1024B00000B5FFF791FF02E010FE30F4F8D441ECD4
:1024C000100443EC112451EC2104A0FB01126FEA2B
:1024D000820252FB100052FB12F252FB1000A0EBE2
:1024E000D07C53EC04245CFB13F153EC1524A1FBCA
:1024F000022001FB030053EC4424A2EB000050FB3C
:102500001CF24FEA111312EB017043EBE27140EA47
:10251000515020EA915020F0070053EC7524A0FBA5
:10252000023C53EC752400FB03CC01FB02CC53ECC2
:102530000424ACEB824C40EA5C70A0F1010041EC59
:10254000400480EE200451EC7004704700B5FFF7A2
:1025500043FF02E010FE30F4F8D441EC100480EEAA
:10256000220410EEB204704700B5FFF735FF02E019
:1025700010FE30F4F8D440EC700400EE010410EECC
:10258000210480EE200451EC3004704700B5FFF7C1
:1025900023FF02E010FE30F4F8D440EC600400EEBB
:1025A000010410EE210480EE200451EC3004704749
:1025B00000B5FFF711FF02E010FE30F4F8D441EC53
:1025C000800400EE010410EE010480EE400410EEE1
:1025D0001304704700B5FFF7FFFE02E010FE30F471
:1025E000F8D441EC800400EE010410EE010480EE0A
:1025F000400410EE3304704700B5FFF7EDFE02E033
:1026000010FE30F4F8D441EC100443EC112400EE39
:10261000010410EE3004C0F30070704700B5FFF7FE
:10262000DBFE02E010FE30F4F8D441EC100443EC81
:10263000112400EE010410EE3004C0F380707047E6
:1026400000B5FFF7C9FE02E010FE30F4F8D443EC09
:10265000102441EC110400EE010410EE30F48CBFA4
:1026600001200020704700BF00B5FFF7B5FE02E073
:1026700010FE30F4F8D443EC102441EC110400EEC9
:10268000010410EE30F42CBF01200020704700BF81
:1026900000B5FFF7A1FE02E010FE30F4F8D441ECE3
:1026A000100443EC112400EE010410EE30F42CBFB2
:1026B00001200020704700BF00B5FFF78DFE02E04B
:1026C00010FE30F4F8D441EC100443EC112400EE79
:1026D000010410EE30F48CBF01200020704700BFD1
:1026E000404261EB410140F2F334B1FA81F20C2A2D
:1026F0000CD2153211FA02F3C2F12002D04021FAB5
:1027000002F12244584141EB0251704769B1C2F1D4
:102710002B0230FA02F3C2F120029140904019439B
:10272000A4EB020201EB0251704701004FF00000E0
:10273000A4F12004D9D17047012767F31F5117FA7C
:1027400003F817D0A0FB080701FB0871A1FB06786E
:102750005FEAD8469219A6FB047806FB05880903B0
:1027600051EA1051D7EB003061EB0801A94238BFA4
:1027700070470BE00C33012717FA03F80FD0A0FBCA
:10278000080701FB0871A94238BF704708BFA04283
:1027900038BF7047001B61EB05010132704703F140
:1027A000200311FA03F6D3F12003D840D940304377
:1027B0007047000000000000000000000453B10852
:1027C0006018850FC8E5F22A6E07271E0D12B22188
:1027D0000412572F12557CBCDA30723F17A717A589
:1027E0005531994E9D0DBF0AEEE0AB5FE3EF6D9C56
:1027F0007636AD6F697BCCE33D62BD7EF0810682AB
:10280000F3FA428F37D5B78A5313C89E7FABB320F4
:10281000491570AF0000000000000000025E88153E
:102820005580FF00907806B1A602FE01DC4E21F033
:10283000EB88FB027A7C801F1615F8033C5DA9D15A
:1028400010A9F304AA466CF5C146EE05FF65E4EB5A
:1028500009F0E70613C00C9EC3A6E007E1BFEC91A8
:10286000C46CD808D5AF5EFFDC43CF09466A72E47A
:10287000D72DC50A237E6E197B2CBA0BBFF5716468
:102880008741AE0C61DFB88CB86EA10D09A9856DCA
:10289000C5B5930E3153B1086018850F3071E498B7
:1028A000359875105915550580FF0F0009C3EB8F3A
:1028B00080FB2F00B1910E9A82F34F001FE7FD229B
:1028C00087E76F00C3A09A298FD78F004F4366AC6C
:1028D0009BC3AF00412A83A9ADABCF004FB7B41E55
:1028E000C68FEF00B6815F09E66F0F0167858966C5
:1028F0000E4C2F011A52DA3240244F01483A9B6A9B
:102900007CF86E01FF81B709C4C88E019C8DBC0B99
:102910001895AE017010DA6B795DCE013A3BE22476
:10292000E921EE0138739533427FECA03114FAF5BA
:10293000BD8689916B02FAE6E0F29183E682120786
:1029400013A85177212621686AB2736A9D0DBF0AC8
:10295000EEE0AB5F19B4E0B71CB66A549596E53D5E
:10296000EF07A548D1CBE555DC0E4E3CCE68ADE86F
:1029700039B5A432CB3CFA96D9569A28C9B21CA1D3
:10298000F9FCAE21864B6BE58AD2F0160453B108F0
:102990006018850F02C00C9EC3A6E007000000006F
:1029A00000000000AC79CFD1F71772B1293BAAB86B
:1029B0004FEAC12040F00040490043F1200340F2BB
:1029C0000001C3F6F071C3F10B0320FA03F038BF26
:1029D0007047404261F1000170475FEAD17CC1F36A
:1029E0000A53A3F2FF330C2B62DA13F1200FDFDD61
:1029F0002DE9F0413C4C70CC4FF00002FFF79CFEFB
:102A00001CF0010F04D06FEA0202201A65EB0101ED
:102A100002F2FE3C40F2FE739C455CD20A0F334B3F
:102A200003EBC2030CCB02F03F0545F04005801AD2
:102A300099410A0E2E4B03EBC20318CB02F58072AC
:102A40005543C01AA1414A0D2A4B03EBC20318CBD0
:102A5000124402F5805205FB0255C01AA1418A02B8
:102A600052EA905242F1000282FB02345B0D53EABB
:102A7000C423C01841EB545184FB02344FF055334A
:102A800083FB043454FB11F304EB930410EB440276
:102A900041EBE473E900A1FB0240C1FB0301400AE2
:102AA00050EBC1504FEA512151EB0C51BDE8F08180
:102AB000B3F5806F07D150EA01320CBF21EAE17112
:102AC00041F400217047002000211CF0010F08BFD5
:102AD000C7F6F07170474FF000004FF00001A8BF3B
:102AE000C7F6F071BDE8F081A4290010B4270010EA
:102AF00014280010A428001040F20001CFF6F07155
:102B00000020704750EA013218BF41F4002170479D
:102B10007FEAA65540F019814FF4805420E18CEAF9
:102B200011331B0640F0EE80BCF1000F67D1C904E1
:102B300051EA5031C004B1FA81F4202C4BD2012566
:102B4000A540A0FB052301FB0533A0FB03C5A1FBAA
:102B500002C6E1FB6356B2EB152263F10003B2EB50
:102B6000066273EB1623A0FB06C7A1FB05C8E1FBB9
:102B700066784FF05535A7FB05C65FF0000CE8FB03
:102B8000056C16EB0C064CF1000C12EB963243F17F
:102B9000000312EB8C4243EB9C3358FB11F55FF0C2
:102BA000333755FB11F656FB17F8A5EB581756FBB4
:102BB00011F5C2F6802656FB15F507EB1537B2EB7B
:102BC000472063EBD751C4F58064A4F11504FFF7E7
:102BD0008CFDBDE8F081B0FA80F410FA04F1A0FB9E
:102BE00001234FF00000B0EB132061F10001C4F5A8
:102BF0008064A4F13504FFF778FDBDE8F081890415
:102C000051EA90318004404261EB4101B1FA81F414
:102C1000202C4ED2013C0125A540A0FB052301FB41
:102C20000533A0FB03C5A1FB02C6E1FB635612EB13
:102C3000152243F1000312EB066253EB1623A0FBAF
:102C400006C7A1FB05C8E1FB66784FF05535A7FB29
:102C500005C65FF0000CE8FB056C16EB0C064CF1AA
:102C6000000C12EB963243F1000312EB8C4243EB63
:102C70009C3358FB11F55FF0333755FB11F656FBCB
:102C800017F805EB581756FB11F5C2F6802656FBD0
:102C900015F507EB153712EB472043EBD751C4F579
:102CA0008064A4F11504FFF720FD41F00041BDE868
:102CB000F081B0FA80F410FA04F1A0FB01234FEA8E
:102CC0001320C4F58064A4F13504FFF70EFD91F0E4
:102CD0000041BDE8F0815FEA410CBFF40DAF5FEA4F
:102CE0005C5C3FF409AFACF2FF3CBCF5806F3FF495
:102CF00009AF012262F31F512DE9F041BCEBEC7FDB
:102D00003FF40DAF0C0C4E4D05EBC40595E80C00DF
:102D100002F03F0505F14005A5FB000605FB01613A
:102D20006FEAE14404F01F04464D05EBC40560CD95
:102D3000521943EB060304F58074A4FB000604FB60
:102D400001667FEA26643FF4E3AE3F4D05EBC40520
:102D500022CD521843EB050341F2010505EB440473
:102D60006404A4FB0050C4EBC401E4FB060180EA48
:102D7000E17481EAE175A5FB0567A4FB05487F08BE
:102D80004FEA360616EB080647F100078C0254EAB4
:102D9000905444F10004801B61EB070154FB14F5CF
:102DA00055FB14F655FB15F74FF0553456FB14F64A
:102DB000B6EB173610EB860041EBA671101A63EBE9
:102DC0000101224A24CA1CF1010C0BDDA2FB0C23D9
:102DD0000024E5FB0C34121A8B4164F100045FF00F
:102DE00080410CE0DCF1000CA2FB0C230024E5FB8D
:102DF0000C3482184B4144F100045FF040414CB95F
:102E00001C0013000022B1F100711CB91C0000234A
:102E1000B1F10071B4FA84F5A5F11D06A1EB0651DC
:102E2000AC4013FA05F0C5F12005EB401C43EA4025
:102E30001043C00A50EB445041EBD421BDE8F0816F
:102E4000A428001014280010A4280010A4290010A1
:102E5000B0F1FF4F3ED2C1153ED04FF0010262F3F8
:102E6000DF5038BF400026A393EC034AAFF21C03A7
:102E700003EB104323F00703D3E9002300FB02F028
:102E800040EC103AFAEEC00A20EEA01A61F17E0181
:102E900060EE811AC90521EE012A40F6FC3221EECE
:102EA000041AC5F6B90261EEA41A51FB12F122EE22
:102EB000052A03EE901A71EEC21AFAEEC53A31EE07
:102EC000611A70EEC10A30EE200A30EE230A10EECD
:102ED000100A704705DC0BD010F1FF4F09D310F535
:102EE000000F40F4800003D840F20000CFF6C0701D
:102EF000704740F20000CFF680707047AFF300805B
:102F00000000003FABAAAA3E0000803E0000000087
:102F10005501000001CB92BE48010000C3C87DBE30
:102F20003B010000685F54BE2F010000C7992CBE12
:102F3000250100002C3C0ABE1A0100002F1AC6BD54
:102F400011010000C2AC83BD08010000D814FCBC14
:102F50000001000000000000F8000000EC0A023D43
:102F6000F10000008E51773DEA0000009806B83D60
:102F7000E40000003B39ED3DDD000000088B163E0B
:102F8000D800000003FA2D3ED2000000D7D24A3EFE
:102F9000CD000000DE7F633EC8000000E3C87C3E39
:102FA000C3000000E65A8B3EBF00000084F7953E48
:102FB000BA0000006E8CA33EB6000000EFADAE3E3E
:102FC000B2000000C40EBA3EAE000000CDB1C53E56
:102FD000AB0000005F99CE3E38B50446094805F0C5
:102FE000CFFB204604F072FA0546064805F0BCFB0C
:102FF0002DB1054B2C449C4201D8284638BD0348CE
:10300000FDF76EFB181C002000000820148900103A
:10301000704700BF2DE9F04F83B09946DDE90DAB55
:103020000F9B884611469A07074616D1DA453AD2D1
:103030000C460D46ABEB0A060E4422464B46414673
:1030400020200134B847B442F7D12946BAF1000F25
:1030500008D1204603B0BDE8F08F0C46BAF1000F4E
:1030600010D00E4655460C9B2E449A440191721B7B
:103070004B46013D41461AF8010D3446B847002D34
:10308000F5D101990F9B9B07E3D5651AAB45E0D9B4
:1030900022464B46414620200135B8475D4504F1A4
:1030A0000104F5D3D5E70C46BAF1000FD9D1D0E72A
:1030B0002DE9F04F0F9FDDF8248017F0020F0A9CD6
:1030C0009DF82CA00E9DDDE90C9644D1F5BBB442D1
:1030D00041D207F0010B04F1FF3C4FF0300EC44425
:1030E00004E00134A6420CF801EF01D9202CF8D1FC
:1030F000BBF1000F00F08880A5422CD904F1FF3C01
:103100004FF0300EC44404E00134AC420CF801EF3F
:1031100021D0202CF8D117F0100F0ED017F4806FAB
:1031200054D1A64263D0A54261D0B9F1100F50D05E
:10313000B9F1020F56D0202C29D12024CDE90B570C
:10314000CDE90984BDE8F04FFFF764BF17F0010B2C
:1031500034D1B442BFD317F0100F1ED017F4806FD4
:10316000E3D1002CDDD1B9F1100F63D0B9F1020F1A
:1031700077D0302488F800400124BAF1000F11D133
:103180007E0748D52B2608F804600134D6E726468A
:1031900001344FF0300C08F806C0202CCDD0BAF125
:1031A000000FEDD02D2608F804600134CDE90B574F
:1031B000CDE90984BDE8F04FFFF72CBFBAF1000F4D
:1031C00030D0B44205F1FF3585D395E7B9F1100F42
:1031D000B3D1BE063BD5202CAFD0582608F80460EA
:1031E0000134A8E7202CA8D02646013407E0661E4B
:1031F000B9D0B9F1100F36D0B9F1020FC9D14FF0E3
:10320000620C08F806C096E717F0100FC5D017F447
:10321000806F86D089E73E0790D5202608F80460A5
:1032200001348BE717F00C0F00D0013DB442FFF4DE
:1032300052AF61E7BC0612D4782488F800403024ED
:1032400088F801400224BAF1000F99D0AAE7202C97
:103250003FF473AF782608F8046001346BE7582414
:10326000EBE76224E9E717F0200FA4F1020C04D089
:103270004FF0580E08F80CE08BE74FF0780E08F886
:103280000CE086E700B9704701F04CBC10B1D1E901
:1032900000311847704700BF2DE9F04F97B09DED02
:1032A000207BDDE9225B0746884651EC170B249C06
:1032B00099460C920B4602468DED047B0794FFF76E
:1032C0009FF9002840F0F481DDE904014FF0FF325E
:1032D0006FF48013FFF7B8F9002840F01B81DDE997
:1032E00004014FF0FF32AC4BFFF7EAF9002840F041
:1032F000EE80DDE90401A4A3D3E90023FFF7E0F9A0
:10330000002840F0D380DDE90401A1A3D3E9002324
:10331000FFF79AF9002840F0C980DDE90401002296
:103320000023FFF791F9002840F0E88023460D9034
:1033300013F4806F08BF062530212B460EAAA5F195
:10334000200605E0013BB34202F8011B00F0938127
:10335000092BF7D81E46ED1ADDE90401FFF72CF919
:103360008E4B044603EBC60393ED007B8DED087B8B
:10337000FFF7FEF802460B46DDE90401FFF762F8AD
:10338000DDE90823FFF772F802460B46CDE90A2370
:10339000FFF724F98246FFF7FDF802460B46DDE908
:1033A0000A01FFF74FF802460B46CDE90A23002237
:1033B0007B4BFFF785F9002800F0FE800AF1010A37
:1033C0005046FFF7E7F802460B46DDE90801FFF734
:1033D0004FF910B14FF0000A0134002E00F0FD80CB
:1033E000681E0EABDFF8CCC118440FE0ACFB0A211D
:1033F000C90801EB8102AAEB42023032BAF1090F8F
:1034000000F8012F40F21C818A461D46202D05F14F
:10341000010306F1FF36E9D12025691E0EAB614894
:10342000194410E080FB0462C3EBA20303EB8302A8
:10343000A4EB420404F1300201351C4601F8012FCF
:10344000002B00F0EB80202D4FEAE473EAD1079BBC
:1034500003F00303012B18D1BBF1000F15D00D9B16
:10346000002B00F00A810BF1FF3BBBF1200F0CD9C0
:103470006B1E0EA930220B4405E001355D4503F8B3
:10348000012F80F0D180202DF7D1079B0EACCDE924
:1034900002B341464B4638460C9A01950094FFF71B
:1034A000B9FD8246504617B0BDE8F08F079B9DEDF1
:1034B000047BCDE923B341464B4638460C9A8DED4B
:1034C000207B229517B0BDE8F04F00F045B96107A9
:1034D00023464CBF042303234146219338464B46E1
:1034E000079A48BF304CCDE922B258BF2F4C0C9AF6
:1034F000209417B0BDE8F04FFFF78CBDDDE9042341
:1035000000200021FEF79EFF0123CDE904010D9369
:1035100023460DE723469C0740F0AA80BBF1040F29
:1035200040F2A6800C9B1D461C1F04EB0B0A2A468A
:103530004B46414620200135B847AA45F7D15546AC
:103540001B4C261F14F8010D2A464B464146B8472E
:10355000B44205F10105F5D1079B0AF1040A980769
:10356000A0D50C9CAAEB04039B459BD952464B4625
:10357000414620200AF1010AB847AAEB04035B4543
:10358000F4D38FE7AFF300800000000065CDCD419C
:103590000000000065CDCDC1FFFFEF7F788A0010ED
:1035A0000000E03F67666666648900106C89001061
:1035B00078890010CDCCCCCC0022DDE90A01634B28
:1035C000FFF742F800287FF408AFBAF1000F6AD184
:1035D0000AF1010A002E7FF403AF2046FEF7C8FF70
:1035E00002460B46DDE90401FEF72CFF02460B46BE
:1035F000CDE904230022554BFFF726F800287FF47D
:103600000CAFDDE904010022504BFFF759F8002808
:103610007FF403AF013424F00104FEE6079B03F0BE
:103620000303012B00F08280202D3FF42EAF0D9B71
:103630007BB32D220DEB050383F83820013524E7F9
:10364000202B3FF4E9AE0EAA15441E44302204E0BC
:10365000202B05F8012F3FF4DFAE9E4203F101035A
:10366000F6D12E220DEB060383F83820751CD4E624
:10367000DDF830A063E720256EE6079B13F00C0F02
:1036800050D00BF1FF3BAB453FF6F2AE202D3FF49F
:10369000FCAE079B5A0701D52B22CBE71B077FF512
:1036A000F4AE2022C6E71AF0010F3FF496AE8FE782
:1036B000A60734D1BBF1030F31D90C9B1D46DC1E8C
:1036C00004EB0B0A2A464B46414620200135B847F9
:1036D0005545F7D155461E4CE61E14F8010D2A46F5
:1036E0004B464146B847A64205F10105F5D1079B77
:1036F0000AF1030A9D077FF5D5AE0C9CAAEB0403E3
:103700009B457FF6CFAE52464B46414620200AF1FC
:10371000010AB847AAEB04039B45F4D8C2E6DDF8DA
:1037200030A0D7E7AB453FF6A3AEAEE6BBF1000F46
:103730003FF47AAF0D9B002B9FD00BF1FF3B5D4513
:10374000FFF496AE202D7FF474AF9EE60000E03FBC
:1037500073890010000000002DE9F04F9FB02A9EF1
:10376000DDE92845074693460891099322462B46F2
:10377000204629460E96DDE92BA6FEF741FF0028DC
:1037800040F0BE80204629464FF0FF32784BFEF7CE
:1037900097FF002840F0B480204629464FF0FF32C2
:1037A0006FF48013FEF750FF002840F0A9802046F8
:1037B000294600220023FEF747FF002840F0D5816C
:1037C000CDE90A45DDE90A239046994606F40062F0
:1037D00016F480630F92139340F0A18058EA090316
:1037E00040F0CA80002A40F0E38106230E9316F0D1
:1037F0000202109240F0D4815346042B38BF0423B8
:103800000C920422043B12920F9320462946002278
:103810000023FEF719FF002840F0F3819DED0A7B9D
:103820000F9B5A4603930E9B8DED007B029326F46B
:10383000006304933846099B0899FFF72DFD024663
:1038400016F0200F099B08990CBF6520452002F156
:103850000108B8470C9A129B16AC5D1E82EAE2730F
:10386000A3EBE273D10F002622469946DFF804C18C
:1038700001E0202E10D0CE46ACFB0930C00800EB92
:103880008003A9EB43033033BEF1090F814606F1F3
:10389000010602F8013BECD80523002006930A2319
:1038A00005950094099D089C4246CDE90330CDE979
:1038B00001612B4621463846FFF7FAFB109A8046F5
:1038C000D2B1A0EB0B06B24516D90BEB06022B4684
:1038D000214620200136B847B245F6D80BF1FF3318
:1038E0005344CBF10102A3EB08034244924538BF95
:1038F000002308F10108984440461FB0BDE8F08F4E
:103900005A463846CDE92845CDE92BA60E9C099BA1
:1039100008992A941FB0BDE8F04FFFF7BDBC58EAE4
:1039200009032BD1002A3FF462AF00230C930E9BB6
:103930000C9A934200F3B9814FF0000820462946C3
:1039400000220023FEF780FE002840F013819DED49
:103950000A7B26F4006646F480668DED287B5A4685
:103960003846CDE92A8A099B08992C96D2E700BFF0
:10397000FFFFEF7FCDCCCCCC06230E93C9F30A50CA
:10398000A0F2FF30FEF7F4FDC1A3D3E90023FEF758
:103990006DFDC1A3D3E90023FEF740FDC9F3130970
:1039A000CDE90C0149F07F5140460022B24B41F471
:1039B0004011FEF747FDA4A3D3E90023FEF756FD0F
:1039C00002460B46DDE90C01FEF728FDFEF7F4FD8B
:1039D0000C90FEF7CDFD9EA3D3E9002380468946D7
:1039E000FEF744FD0022A54BFEF718FDFEF7E4FDAF
:1039F000034649464046129397A3D3E90023FEF7B6
:103A000035FD804612988946FEF7B2FD94A3D3E9AE
:103A10000023FEF72BFD02460B4640464946FEF7C3
:103A200011FD02460B4680468946FEF71FFD4246C1
:103A30004B46CDE9100140464946FEF7EFFC002217
:103A4000CDE91401DDE910018D4BFEF735FD0022B3
:103A50008C4BFEF7E3FC02460B46DDE91001FEF756
:103A60002BFD0022884BFEF7D9FC02460B46DDE910
:103A70001001FEF721FD42464B4680468946002054
:103A80004FF08041FEF7DEFC02460B4640464946B9
:103A9000FEF7C4FC02460B46DDE91401FEF70CFDFF
:103AA00000227A4BFEF7BAFC129B002203F2FF3C85
:103AB0004FEA0C53FEF7DAFC80468946DDE90A013D
:103AC00042464B46FEF7C0FD50B10C9B4046013BC1
:103AD00049460C9300226B4BFEF7EEFC804689466C
:103AE0000C9A43466332C62A06F0020210924946F7
:103AF0000F9A2CD8002A5ED0042212920B433FF476
:103B000016AFDDE90A0158A3D3E90023FEF7C4FD8F
:103B100048B1DDE90A0156A3D3E90023FEF794FD7D
:103B200000287FF404AF0E9B002B50D0139A002A7C
:103B30007DD0013B0E93129B9A4505D9109B002B1B
:103B400000F0AE800223109300230F9344E022BBC9
:103B5000BAF1050F4FD906F00203002B49D1052316
:103B60001293AAF105030F933AE005F100430A947A
:103B70000B9327E626F4006646F4806638462C96BA
:103B8000DDE90A67344607F100455A46CDE92A8A3D
:103B9000CDE92845099B0899BCE605221292ADE7BC
:103BA00000230222CDE90F3204220C9312922CE65C
:103BB0004FF00508C2E6BAF1040F1FD9109B002B85
:103BC00078D104231293AAF104030F9304E0129B0B
:103BD0009A4531D80E9B0F930C9B002B3FF415AEEA
:103BE000DDE90A0142464B46FEF766FCCDE90A01D3
:103BF0000BE60223109305231293F1E7042312939B
:103C0000EAE7DDE90A45A0460F9B05F10049039369
:103C10000E9B5A46029326F4006304933846CDE97E
:103C20000089099B0899FFF737FB024608E6129BBB
:103C30009A4544D80F92CFE7109B8BB30E9B0F93FE
:103C400002231093C8E700BF61436F63A787D23F89
:103C500071A379094F930A401655B5BBB16B024069
:103C6000EF39FAFE422EE63F2D431CEBE2361A3FB7
:103C70000000000080842E410000F83F0000E03F7B
:103C800000002C4000002440000018400000F03FDD
:103C9000FB799F501344D33FB3C8608B288AC63F3B
:103CA000129BAAEB03030F9396E7A3EB020808F11C
:103CB000FF3843E604231293022310938CE7109BF2
:103CC000002BEDD002230F92109385E72DE9F04FE2
:103CD0009BB0249C954D0A94954CB1F1000A18BFF5
:103CE000834625601878934C914608BFA3460993F4
:103CF000002800F093824FF000080AE042464B464D
:103D0000514608F10108D847099B1878002800F0AF
:103D1000CE80099B252803F101030993EED11C46AF
:103D20000023224612F8010BA0F1200110290AD825
:103D3000DFE801F04009093C0909090909090938C6
:103D4000093409093000A0F130010929099440F231
:103D50008A802A2800F0F08000252E2800F0968026
:103D60000026A0F1680112292DD8DFE811F04901E1
:103D70002C0043012C0038012C002C002C002C00BE
:103D80002C002C002C0027002C002C002C002C00D8
:103D90002C002700144643F00103C2E7144643F009
:103DA0000203BEE7144643F00403BAE7144643F0A7
:103DB0001003B6E7144643F00803B2E709994878C0
:103DC00043F480730132672809927ED8242840F298
:103DD000C180A0F12502422A00F2BC80DFE812F087
:103DE0005001BA00BA00BA00BA00BA00BA00BA006C
:103DF000BA00BA00BA00BA00BA00BA00BA00BA00F3
:103E0000BA00BA00BA00BA00BA00BA00BA00BA00E2
:103E1000BA00BA00BA00BA00BA00BA00BA00BA00D2
:103E2000190137011901BA00BA00BA00BA00BA0084
:103E3000BA00BA00BA00BA00BA00BA00BA00BA00B2
:103E4000BA00BA00BA00BC01BA00BA00BA00BA009F
:103E5000BA00BA00BA00BA00BA00BC015801BC01ED
:103E6000190137011901002500E0013205EB850534
:103E700000EB45051078303DA0F130010929F4D957
:103E80002E28099202F101027FF46AAF099943F4E6
:103E9000806348781146A0F13006092E40F2218156
:103EA0002A2800F02F8109920026013259E7444662
:103EB000C14501D809F1FF384B4642465146002022
:103EC000D84720461BB0BDE8F08FA0F16902D2B2FE
:103ED0000F2A3FD8012149F241079140394040F073
:103EE000F3800A2A3DD0072A34D10A9D55F8042BC5
:103EF000002A00F0138143F0210012AB1F460B9300
:103F000003E0202900F014811A4602F00F04234632
:103F1000092C94BF303337330F2A07F8013B01F1E6
:103F200001014FEA1213ECD802E100BFCD3C0010B2
:103F30008C290020113000100A99099851F8045B6F
:103F40004078002DCDE90921BCBF43F002036D424A
:103F5000013202E742464B46514608F10108D84774
:103F6000D2E60A99002E51F8047B18BF3246387801
:103F700008BF4FF0FF32002800F07B83BC18A44636
:103F80003A4604E012F8014F002C00F03F819445BE
:103F9000F8D16446E41B5A0540F12281B44228BF9F
:103FA000344613F0020300F088820223CDE90A515F
:103FB00042461D46464408E04B465146D84717F84E
:103FC000010F08F1010810B142464645F4D12B46D5
:103FD0000B990A9D002B40F041810A9194E60999C2
:103FE00048786C287FF4ECAE0A46887843F4407336
:103FF0000332E8E6099943F4007348780132E2E6B7
:1040000009994878682800F0038143F08003013261
:10401000D9E6672800F0D980472800F0DC804528E1
:1040200000F0DB80CDE903530A9B0296073323F0AF
:1040300007031C464246F4E802674B465146584681
:10404000CDE900670A94FFF787FB80465CE64628C7
:1040500008BF43F02003CDE903530A9B02960733C0
:1040600023F007031C464246F4E802674B465146DC
:104070005846CDE900670A94FFF70EF9804643E6FB
:1040800042464B465146252008F10108D8473BE6F9
:104090000A9A990702F1040408F1010640F1C6806A
:1040A00010784B4642465146D847012D88BFA84458
:1040B00040F2BD8132464B46514620200136D8475A
:1040C0004645F7D10A941FE66F2800F0818040F240
:1040D0004882782800F090810A2723F01003BC461C
:1040E00041E0002606EB860600EB4600A0F1300614
:1040F00011F8010FA0F13002092AF3D90A460991FB
:1041000001322EE6DDE9092151F8046B9078023284
:1041100009920A91013226EAE67622E623F010009F
:1041200013F4806240F021003FF4E7AE12AB0B9332
:104130000B9B069000930823102005930023424612
:10414000CDE9023001914B46514658460496FEF7A0
:10415000AFFF0A958046D7E5582862D0622840F024
:104160008F800227BC4613F4806000F0DD8023F0CE
:104170000D0313F4007240F081810A990F1D13F4AE
:10418000807140F037825C060A9A40F13B811278D8
:10419000002A40F04E8123F01003002800F04981EE
:1041A000114612AA0B92CDE90553CDE903C6019140
:1041B0000B9B4246009300235146029358464B46C0
:1041C000FEF776FF0A9780469EE543F4006329E7F1
:1041D0000827BC46C7E743F4006343F0200321E708
:1041E00013F0020300F08E8102230A951E460D464D
:1041F00042464B465146D84717F8010F08F10108CF
:104200000028F5D1294633460A9DE3E6D41BC2E6D1
:104210000A46887843F0C0030332D4E5044680465A
:1042200046E6102743F02003BC469CE7012D40F2F0
:10423000F880464608F1FF372F4432464B46514638
:1042400020200136D847BE42F7D10A9B3246187863
:1042500051464B46D847A8440A9455E54646A542E0
:104260007FF6BBAEA844A8EB04080C4632464B468A
:10427000514620200136D8474645F7D12146ACE6C5
:1042800013F4806200F0BB804FF4806223F0110CC5
:104290001CF400770A9B4AD11CF4807003F10404DB
:1042A00040F034811CF0400F40F0A3801CF0800FE0
:1042B00000F0D381B3F9001081EAE177A7EBE17751
:1042C000BFB2CB0F002900F056813A4612A90F4623
:1042D000DFF8D8E30B910A930C9501E020280FD06A
:1042E0001546AEFB0213DB0803EB8301A2EB410191
:1042F0003031092D1A4600F1010007F8011BEDD8F5
:104300000A9B0C9DCDE9055CCDE9010304960B9B4E
:10431000424600930A235146039358464B46FEF704
:10432000C7FE0A948046EFE423F00C0321E707332D
:1043300023F00703194608465B6850F8081BDF0F97
:104340000A9051EA030062D1002A40F09F8113468F
:10435000114612AACDE90C7500201546CDE90E686C
:10436000DFF848E30B9201E020282DD05A1842F1E3
:104370000002AEFB027828F0030707EB9807D21B78
:104380001E469B1A61F100070C464FF0CC3101FB31
:1043900003F10EFB0711A3FB0E731944052307F06D
:1043A0000108A8FB03389B180A2E03F130034FEADB
:1043B000570774F1000405F8013B00F1010047EADA
:1043C000C1734FEA5101CFD2DDE90C75DDE90E680A
:1043D0000B9B424600930A23CDE9055CCDE901071A
:1043E000049603934B4651465846FEF761FE8046BD
:1043F0008AE419780F4664E71027BC46B3E623F039
:10440000100C45E71C064CBF12881268C0E60A462D
:10441000191E01DB13469CE75242134661EB410132
:1044200097E713465146187842464B46D847B04660
:1044300048E613F0200F14BF4120612012ACA646BD
:104440000B940A93A0F10A040C9502E0202912D0E3
:104450002A46B2FBFCF50CFB1520C3B2092803F178
:1044600030008ABF1B19C3B2DBB262450EF8013BB4
:1044700001F10101EAD20A9B0C9D94E60A9A0732E7
:1044800022F00702516852F8084B8E460A9254EA0D
:10449000010276D123F01003002872D000221146C9
:1044A00012AA0B92CDE905530B9B424600930023C1
:1044B000CDE903C60191029394E7A54298BF013468
:1044C0007FF674AD4FF48063CDE90A7505EB080201
:1044D0001F460D46141B42464B465146202008F10C
:1044E0000108D847A045F6D13B460A9F29463878AF
:1044F0000B9D6C1C00283FF470AD002B3FF475AE93
:10450000002353E5A542DFD801346EE61968CB0FCE
:10451000002900F0A88081EAE172A2EBE17212A901
:104520000846DFF888E10B910A930C9501E0202FF3
:104530000FD01546AEFB0213DB0803EB8301A2EBA1
:1045400041013031092D1A4607F1010700F8011B1E
:10455000EDD80A9B0C9DCDE9055CCDE9017304966D
:10456000D5E6692823F0100C40F08C8013F48062AB
:104570003FF48EAE88E6002A3FF4A8AE12AA0B9252
:10458000C0E613F0200F14BF41226122002012A9BF
:104590000A3ACDE90E68CDE90C35CDF844B00646AF
:1045A0008846754693460B91CDF840C003E0202E17
:1045B00017D004460D4629463A460023204604F00B
:1045C000CFF8D2B2092A02F1300388BF02EB0B0305
:1045D000BC42DBB275F1000508F8013B06F10106AB
:1045E000E5D23146DDE90C35DDE910CBDDF83C8064
:1045F0000E9E57E70A99096851B923F0100338B1A4
:1046000012A90B91CDE90553CDE903C60192CFE57F
:1046100013F0200F14BF4120612012ACA6460B946A
:104620000A93A0F10A040C9502E0202A12D0294630
:10463000B1FBFCF50CFB1510C3B2092803F13000E7
:104640008ABF1B19C3B2DBB261450EF8013B02F110
:104650000102EAD20A9B0C9DD4E7196881EAE1774E
:10466000A7EBE1772DE6002A3FF459AF12AA0B928F
:1046700071E713F480640DD013F0020412D00446E5
:104680004646ECE50A276346BC466CE512AB0020C3
:104690000B939DE613F002037FF4E0AD002D7FF451
:1046A00013AF9AE4002D7FF40DAF96E4CDCCCCCCC3
:1046B00070B594461E4605460C4684B04FF0FF3256
:1046C000634602A900960348CDE90254FFF7FEFABB
:1046D00004B070BD8D32001010B5094B84B01C6859
:1046E0004CB1034600914FF0FF3203A90548A047A3
:1046F000012004B010BD00F057FA204604B010BDF0
:104700008C2900208532001000BEFDE7074A0346D1
:10471000106838B1064903448B428CBF4FF0FF301C
:1047200013607047034908461160F3E788250020AD
:1047300000000820082A002090B110B50446FCF7BC
:10474000EDFE084AD2E90032C01A61EB02010023F3
:10475000054A04F00DF8C4E90001A260002010BD74
:1047600000207047A81D002040420F000346084665
:10477000114623B9034BD3E9002300F039B94FF0B8
:10478000FF307047188A0010431E012B09D810B55E
:104790001446084601230022214600F0B3F82046C3
:1047A00010BD4FF0FF3070474FF0FF30704700BF33
:1047B0004FF0FF30704700BF4FF0FF30704700BF31
:1047C00008B5FFF7A1FF00BF38B5064C064DFDF751
:1047D00067F8AC4204D254F8043B9847AC42FAD391
:1047E00038BD00BFF0870010F88700100368084646
:1047F000114618472DE9F0411546427D0746884687
:10480000002A46D0002D1DDD0B780A2B23D0012D68
:104810004FF0000C18D04646012416F8012F21460F
:104820000A2A04F1010422D0A542F6D165450BDC29
:1048300008EB050313F8013CA3F10D03B3FA83F36E
:104840005B093B75BDE8F0813B68A5EB0C0108EB0B
:104850000C009847ECE7037D002BD8D103680221B8
:104860000F489847012DE3D04FF0010CD3E716F81D
:10487000013C0D2BD8D08C4508EB0C00A1EB0C01B2
:1048800001DA3B689847022105483B689847A446EF
:10489000CAE7294640463B68BDE8F041184700BFDB
:1048A000C88A00100B682DE9F041802B0D460646A2
:1048B00005D05A1C2B442A601E71BDE8F0810F4BB5
:1048C0001C68A4B10E4F01F1040801E0246974B121
:1048D0002368002BFAD03B680BB1A342F6D12046E7
:1048E00041462A68FFF786FF2469002CF0D1002397
:1048F00001222B442A601E71BDE8F081782500203A
:10490000842500202DE9F04782B00D4691461C46D3
:104910000646FCF703FE4FF0FF3C6FF000472E4ABF
:10492000821841F10003944577EB03013CBF6246D6
:104930003B462A4803F02CFF6B1C804640D00CB34A
:10494000274F284B1C68B4B1B9F1000F1CD1DFF818
:104950009C9001E0246974B12368002BFAD0D9F847
:1049600000300BB19C42F5D120462A463146B8476B
:104970002469002CF0D1B8F1000F26D1284602B0EE
:10498000BDE8F087184FDCE74FF00A0ADFF85C90CB
:1049900002E02469002CEED02368002BF9D0D9F86E
:1049A00000300BB1A342F4D12A4631462046B84725
:1049B000012220460DF107018DF807A0B847E8E76E
:1049C000304603F017FB0546B9E7044803F0CCFE78
:1049D000284602B0BDE8F08740420F00201C0020AE
:1049E000F547001078250020ED47001084250020B1
:1049F0002DE9F04F984607460E4683B0DFF860B0C9
:104A0000DFF86090DFF860A00192DBF8004014B995
:104A100011E024697CB1D9F800500DB1A542F8D15C
:104A2000A268002AF5D03146384690470028F0DDCC
:104A300003B0BDE8F08FDAF8242090450BD8DAF8FF
:104A40002810019B994204D36FF0010003B0BDE828
:104A5000F08F9045F8D101200021FCF769FDD4E7E3
:104A6000782500208425002000000B40084A1368A8
:104A700023B90AE003F110021B6933B18342F9D173
:104A800029B9186910601961704701B11060704749
:104A90007825002000F024BB2DE9F04182B00646C5
:104AA000FCF73CFD4FF0FF326FF00043361841F148
:104AB0000007B24273EB07013CBF16461F46DFF802
:104AC0006080154DD8F8004014B912E0246984B113
:104AD0002B680BB19C42F9D1A368002BF6D00121C1
:104AE00001A898470028F1DD9DF8040002B0BDE858
:104AF000F0810A4B5A6A974209D89B6AB34204D3A1
:104B00006FF0010002B0BDE8F0819742F8D10120BA
:104B10000021FCF70DFDD5E78425002000000B40A7
:104B200078250020F0B583B006468DF80700FCF725
:104B3000F5FC4FF0FF356FF00044174A821841F141
:104B40000003954274EB03013CBF23462A461348F9
:104B500003F01EFE124B07461C689CB1114D01E08C
:104B600024697CB12368002BFAD02B680BB19C42DE
:104B7000F6D1204601220DF10701FFF73BFE246923
:104B8000002CEFD117B9304603B0F0BD034803F055
:104B9000EBFD304603B0F0BD40420F00201C00206A
:104BA000782500208425002038B5044603F022FA39
:104BB000012305461A4620462946FFF7A3FE084B67
:104BC0001C682CB163682BB198472469002CF9D17B
:104BD000284638BD2469002CF4D1284638BD00BFD2
:104BE000782500202DE9F041A2B004460D46FCF7DF
:104BF00095FC4FF0FF376FF00046264ADFF8A4809F
:104C0000821841F10003974276EB03013CBF3A461C
:104C10003346214803F0BCFD00272B4622460646BA
:104C200001A91E480197FFF743FD019B0546D8F8EF
:104C30000040C3B1002C2BD0194F01E0246974B19E
:104C40002368002BFAD03B680BB1A342F6D1204673
:104C5000019A02A9FFF7CEFD2469002CF0D10023B0
:104C6000D8F8004001932CB1636843B19847246998
:104C7000002CF9D12EB9284622B0BDE8F081246974
:104C8000F1E7054803F070FD284622B0BDE8F08149
:104C90000194EFE740420F00201C0020A5480010BF
:104CA00084250020782500200FB400B583B004A926
:104CB00051F8040B0191FFF795FF03B05DF804EB89
:104CC00004B07047704700BF0022014B1A70704754
:104CD000012A00204B79FF2B0BD1887948B9CB7979
:104CE000012B07D1082A05D9034B8A7809201A70AD
:104CF00070470020704700BF012A00200120704744
:104D0000012901D00120704708B5104B91881B780C
:104D1000994201D0002008BD5378012B08D0022B06
:104D2000F8D1002164220846FCF7F6FC012008BDFA
:104D30005188CB0548BF480AC1F3402258BF4FF005
:104D4000FF3001F07F01FCF765FD00BF012A002064
:104D500000487047948B0010012907D15378012B2C
:104D600002D19388072B03D00020704701207047A1
:104D70001146A623014A01F03DBA00BFEC8A00109B
:104D80000346012201481A70704700BFCC8A001008
:104D900008B50B68B3F5966F00D008BD00224FF040
:104DA000FF301146FCF736FD024A034B10601960D4
:104DB000704700BF182500201C250020184B70B537
:104DC0001A68002A28D0EFF3108172B6D2E8CF4FCC
:104DD0000120002CFAD1C2E8440F002CF6D1BFF319
:104DE0005F8F00220F4C186859602270C0E88F2F27
:104DF00081F31088002400250B4E3078FBF75AFD14
:104E000020B9002400252046294670BD3078FBF7E4
:104E100061FD2046294670BD4FF47A740025EBE70A
:104E2000B0290020032A0020022A0020014B187814
:104E3000FBF750BD022A002038B5044600200D467D
:104E400001F008FBA8B3002001F01AFB88B3FCF7BF
:104E500065FB4FF0FF3E6FF0004C174A821841F19E
:104E6000000396457CEB03013CBF72466346134842
:104E700003F08EFCE8B1002001F0ECFA58B90021F3
:104E80004FF0FF3000F00EFD6FF002040B4803F00E
:104E90006BFC204638BD002001F0F2FA0028EED06D
:104EA00021462A46002001F0F5FA04460028EDD1FB
:104EB000EAE76FF00204ECE740420F00E42900202B
:104EC00008B5FCF72BFB4FF0FF3E6FF0004C0F4A8C
:104ED000821841F1000396457CEB03013CBF72460A
:104EE00063460B4803F054FC70B14FF0FF300021D3
:104EF00000F0D8FC002001F015FB0028F5D1BDE83A
:104F00000840034803F030BC08BD00BF40420F001A
:104F1000E42900202DE9F84380460F46FCF7FEFA0D
:104F20004FF0FF356FF00044334A821841F100031F
:104F3000954274EB03013CBF2A4623462F4803F0F9
:104F400027FC08B9BDE8F883002001F083FA0028A7
:104F500047D0002F40DD0025DFF8A890284E13E051
:104F60002246002001F024FB002104464FF0FF30D0
:104F700000F098FC002001F0D5FAFCF7CFFAC9E95F
:104F800000012544AF4227DD002001F031FB7C1BEE
:104F90008442A8BF044608EB0501002CE0D121465D
:104FA0004FF0FF3000F07EFC204601F0BBFA2046B7
:104FB00001F050FA80B1204601F01AFB0028E1D13F
:104FC000FCF7ACFAD9F80030D9F804209B1942F16B
:104FD000000283428A41D5D20848BDE8F84303F075
:104FE000C3BB00200021074BC3E90001BDE8F84323
:104FF000024803F0B9BB00BF40420F00E429002083
:1050000020A10700E01D002030B5002185B02E480A
:1050100003F0CAFBF0B92D4B1A68CAB1EFF3108147
:1050200072B6D2E8CF5F0124002DFAD1C2E8454F15
:10503000002DF6D1BFF35F8F254C1D682278596093
:10504000D3B201222270C5E88F0F81F31088CBB153
:1050500005B030BD00214FF0FF3000F023FC0020F0
:1050600001F00EFA0446184803F07EFB002CEFD046
:10507000184B1B68002BEBD0174A106805B0BDE831
:1050800030401847FCF740F80446FCF747FA4FF069
:10509000FF3C6FF0004510F57A7241F10003944532
:1050A00075EB030138BF2B464FF000014FF00105AF
:1050B00020460A4C38BF6246CDE901150094FCF742
:1050C00027F805B030BD00BFE4290020B02900203A
:1050D000032A0020182500201C250020BD4D0010AB
:1050E0004FF0504330B585B01C68FCF70DF8FCF765
:1050F00021F9A04202D0002005B030BD00212A4B8A
:1051000008461B7801F03CFD28480368002B47D077
:105110000120FBF77DFD0346254C2649C0B22370D4
:10512000FBF7F4FB20780121FBF7AEFB0E20FBF729
:10513000DDFB40BB204B0125C3E90000FBF7E4FF8A
:105140000446FCF7EBF94FF0FF3E6FF0004C10F512
:105150007A7241F1000396457CEB03014FF00001A8
:105160002046164C3CBF72466346CDE901150094BB
:10517000FBF7CEFF0028BEDB01211148FFF776FCCC
:10518000012005B030BD0120FBF73AFB01460A487B
:10519000FBF79AFD00220E200A49FBF7E7FBEBE73D
:1051A000FBF776FDB4E700BFA88C0010E4290020CF
:1051B000022A002009500010B0290020BD4D001027
:1051C0007C1600202D4E0010002001F043B900BFD6
:1051D00000487047308C001000487047DC8B00108E
:1051E00038B5184B04461A780AB344B940F209425C
:1051F0004FF44173144D6A8013482B8038BD052C41
:105200001DD8124B104D53F82410284600230139A5
:1052100003E0132B20F8022F0ED011F8012F0133D9
:10522000DBB2002AF5D15B0043F44073E4E71121BF
:10523000184600F025F8D8E74FF44A73DCE7002061
:1052400038BD00BFEC29002050250020C48B001081
:1052500000B545F247308BB0FCF7D0FA0122034687
:10526000092101A89847DDE90332044912BA1BBAA3
:10527000C1E900230BB05DF804FB00BFD829002072
:10528000012901F1FF3300F0B3805D490A784FEA4C
:10529000121C9F2A8CBF0CF1370C0CF1300C012B27
:1052A00080F800C000F0A78002F00F02092A8CBF2E
:1052B00037323032022B427000F09D804A784FEA3C
:1052C000121C9F2A8CBF0CF1370C0CF1300C032BF5
:1052D00080F802C000F08F8002F00F02092A8CBF14
:1052E00037323032042BC27000F085808A784FEA62
:1052F000121C9F2A8CBF0CF1370C0CF1300C052BC3
:1053000080F804C077D002F00F02092A8CBF373230
:105310003032062B42716ED0CA784FEA121C9F2A97
:105320008CBF0CF1370C0CF1300C072B80F806C049
:1053300061D002F00F02092A8CBF37323032082BBD
:10534000C27158D00A794FEA121C9F2A8CBF0CF107
:10535000370C0CF1300C092B80F808C04BD002F050
:105360000F02092A8CBF373230320A2B427242D0E8
:105370004A794FEA121C9F2A8CBF0CF1370C0CF1B2
:10538000300C0B2B80F80AC035D002F00F02092A2E
:105390008CBF373230320C2BC2722CD08A794FEA54
:1053A000121C9F2A8CBF0CF1370C0CF1300C0D2B0A
:1053B00080F80CC01FD002F00F02092A8CBF3732D0
:1053C00030320E2B427316D0CA7911099F2A8CBF36
:1053D000373130310F2B81730DD002F00F02092AC3
:1053E00094BF30323732102BC27318BF103002D046
:1053F000002303707047184400230370704700BFF8
:10540000D829002070B500F02DF90C234026194C46
:10541000FF22A3670E201849FBF7A8FA32460021A5
:10542000164802F0C3FC0125002380211348144ACA
:10543000418445700683068782604360136042F8AA
:10544000043C80F8213080F83B3043620D4B4FF034
:105450000056C360C362803B836203F09DF94FF442
:1054600080320949094B25642846E664C4F8901047
:10547000DA6470BD000011501D0400208C2500204E
:10548000840010500001105010D001000020115075
:1054900001210E20FBF7F8B900220248114600F066
:1054A00001B900BFAC250020044B197021B14FF4A5
:1054B0000032034BC3F89020704700BFFE29002044
:1054C000002011500B785B0602D14B78052B00D0E1
:1054D00070474B88014ADBB21360704700001150DF
:1054E000CB782DE9F04103F0030EBEF1010FC3F3B9
:1054F00001005BD0002791F802C0344C0CF07F0211
:105500005600898806EBDC1304EB43134FEADC15E5
:10551000D876C1F30A0185F0010083F802C019832F
:105520005870DF70D3008DBB2948043304EB821C14
:1055300003EB0008CCF808801F5082B3254BD20043
:105540001344CCF80430244B3F311A6821F03F015A
:10555000BEF1020F08BF4900114419601F4B7719B3
:1055600004EB47179942FA602BD82E4404EB4613FC
:10557000D97E82F0A04282F480125B6842EA8162A6
:1055800042F000421A600120BDE8F081104804EBAF
:10559000821C0344CCF8283040F832704AB900220B
:1055A0000F4904EB4513D9605A60ECE70020BDE8D1
:1055B000F081D20002F1A04202F58012CCF8242042
:1055C000C1E7FCF767F9FA68CFE700BF8C25002038
:1055D000800010500400105094290020FF0F10503C
:1055E0000001105003F0D8B88C4608B511460748A2
:1055F0001A460CF07F034FEADC1C0CEB430C00EB6B
:105600004C1000F04FF8012008BD00BF8C25002091
:1056100011F07F0205D100290CBF02200120064BAA
:105620009866C909054B01EB420003EB40104FF4AB
:105630000062002103F0A8B8002011508C25002042
:1056400011F07F0300D17047002205485B0003EB97
:10565000D11300EB43106FF40061C27003F094B8F3
:105660008C2500204FF0805209480A4908B50A4BA2
:1056700002600A609968C94311F08051FAD14FF471
:105680008052064802F092FB0922054B5A6708BD7A
:105690000020024000300240000002400000105094
:1056A0000000115000234FF0010C10B580F81AC013
:1056B0008282C3820161044603F072F820B14FF484
:1056C0000032074BC3F89020204603F055F810B184
:1056D0000123237710BD2046BDE8104003F038B801
:1056E000002011502DE9F04100241D4E05462346AF
:1056F0003278DFF878801B4F0DE03B6813EB4413E2
:1057000024D0DB682846984732780134E4B2511C33
:10571000A142234606DBA242A3EB0203EDD808EB2D
:105720004313EEE7542200210F4802F03FFB4FF0F5
:10573000FF330D482022041D4360C4E90133E360B8
:10574000FF21BDE8F041143002F030BB4FF0E02300
:10575000D3F8F03DDB0700D500BEBDE8F08100BF07
:10576000FD290020601F002030210020448C001003
:10577000704700BF704700BF00207047002070478F
:10578000704700BF704700BF704700BF704700BF41
:10579000024B5878003818BF012070473021002094
:1057A000024B1878C0F38000704700BF3021002002
:1057B0002DE9F047DFF8E4A09AF80030FF2B56D12E
:1057C0000E4600293ED0002154220746294802F007
:1057D000EDFA0022284C294B20461A70FBF758FAA4
:1057E000274B28481C60284CFBF760FA204601F044
:1057F000ABFD264A264B146023B12648FFF7C0FABA
:10580000254B18600024234D23462A78DFF890901A
:10581000DFF884800EE0D8F8003013EB441311D089
:105820005B687BB198472A780134E4B2511CA142ED
:10583000234611DBA242EED89B1A09EB43135B68A7
:10584000002BEFD14FF0E023D3F8F03DDB0700D57C
:1058500000BE0020BDE8F087314638468AF8007067
:10586000FFF7D0FD0028EDD03846FFF711FE0120EC
:10587000BDE8F0873021002028210020FF290020EA
:1058800084210020A81600209416002088210020E2
:10589000814D0010FD290020601F0020B01600205F
:1058A000448C00102DE9F04FDFF8C8928BB099F8C6
:1058B0000030FF2B00F0F180A84CA94DDFF8B0A21A
:1058C000DFF8B4B226687369EFF3108272B6D3E8DA
:1058D000CF0F01210028FAD1C3E8401F0028F6D1DC
:1058E000BFF35F8FB261304607A901F077FB002359
:1058F0007269C2E88F3FB36983F31088002800F013
:10590000CC809DF81D30013B072B00F27D83DFE842
:1059100003F0A7B1959D8E350A04089B002BD1D0CA
:1059200009989847CEE79DF8201001F07F0605EB17
:10593000460000EBD11090F8343023F0010380F8DA
:10594000343090F8343023F0040380F83430002EE3
:1059500000F0A680037D9AF80020934280F09380A7
:10596000804A126812EB431300F090809E699DF804
:105970002120099B9DF81C00B047A3E79BF800304D
:10598000002B00F083809BF80030013BDBB28BF8EA
:1059900000309BF8003003F0FF00002B92D1704FD5
:1059A0009DF81C803B7843F001033B7097F834303E
:1059B00060F3000387F8343097F8343060F38203E3
:1059C00087F8343097F8353060F3000387F83530C6
:1059D00097F8353060F3820387F8353000F06CFCBF
:1059E0009DF8203003F06002602A6CD0402A7CD001
:1059F00003F01F03012B00F0C180022B00F0818017
:105A0000002B60D1202A00F0E981002A5BD19DF8AB
:105A10002130092B57D8DFE813F0B001A20156005E
:105A2000C101560095016B0156006001F4002B780E
:105A3000D9077FF547AFFFF7A9FE43E7EB78DA0711
:105A40007FF540AF0898FFF795FE3BE72B78D80726
:105A50007FF538AF2878C0F3C000FFF795FE31E737
:105A60009DF81C00FFF73EFE00F01CFC9DF8203066
:105A7000AB7027E79DF81C00FFF734FE00F012FC26
:105A8000FFF780FE1EE7501C984211DA4FF0E0232A
:105A9000D3F8F03DDC0700D500BE0BB0BDE8F08FB9
:105AA000099B9DF821209DF81C0000F019FC09E7D6
:105AB0009B1A2D4A02EB431358E7FFF78DFB024672
:105AC000002840F082814FF0E023D3F8F03DDE075C
:105AD00000D500BE9DF81C000021FFF799FD802134
